9042162319086  000019025F0300TEST0000000000100000000000000000000WRIGHTD     421623020190125A0406OCE            BANKCARD    4216233                                      
3300421623320032VCRF1150O4216233161049167000742446990579083158644500815000000007342985SUPERFRESH SELBY         SELBY        GB 5411   00000 1266440590258888888888888880
330100023  11.3-7241  328022569500000000001000000000088004        0000F  110948822762511157900000000000000001494826 000000000000                                        
910042162319024000000000000000000000000260000000040000000968000082        0000000020000000000000000000000000000000000000000000000000000000000000000000000000000000000000
920042162319024000000000000000000000003065000000050000001925000001        0000000030000000000000000000000000000000000000000000000000000000000000000000000000000000000000
